:100000000C942A000C9434000C9434000C943400AA
:100010000C9434000C9434000C9434000C94340090
:100020000C9434000C9434000C9434000C94340080
:100030000C9434000C9434000C9434000C94340070
:100040000C9434000C9434000C9434000C94340060
:100050000C94340011241FBECFE5D4E0DEBFCDBF29
:100060000E9440000C944B000C94000087B3806BFE
:1000700087BB83E58DB908958FB9779BFECF08952F
:100080000E94360081E00E943C008AE00E943C0011
:0A00900080E090E00895F894FFCF9F
:00000001FF
