S0210000504F5420636F6E74726F6C2050574D202B4C434420636F64652E7372656302
S11300000C942A000C9434000C9434000C943400A6
S11300100C9434000C9434000C9434000C9434008C
S11300200C9434000C9434000C9434000C9434007C
S11300300C9434000C9434000C9434000C9434006C
S11300400C9434000C9434000C9434000C9434005C
S11300500C94340011241FBECFE5D8E0DEBFCDBF21
S11300600E946E000C9476000C940000A99A000083
S1130070A99882E48A95F1F700C00895A89888BBEE
S11300800E94360008958FEF84BB87BB87E893E115
S11300900197F1F700C0000088E30E943E008CE065
S11300A00E943E0086E00E943E0081E00E943E00E5
S11300B083EF91E00197F1F700C0000080E80E940F
S11300C03E000895A89A88BB0E94360008951FBC7C
S11300D01DBC1CBC80E288BF8E9808950E9443001A
S11300E00E94670081E40E946200FFCFF894FFCF72
S9030000FC
