:100000000C942A000C943F000C943F000C943F0089
:100010000C943F000C943F000C943F000C943F0064
:100020000C943F000C943F000C943F000C943F0054
:100030000C943F000C943F000C943F000C943F0044
:100040000C943F000C943F000C943F000C943F0034
:100050000C943F0011241FBECFE5D4E0DEBFCDBF1E
:1000600010E0A0E6B0E0EAEAF0E002C005900D92F0
:10007000A036B107D9F70E9449000C9453000C94A4
:100080000000BE9A6E9A0895779BFECF8FB18FB114
:1000900008958FEF81BB0E9441000E94440082BB03
:0A00A00080E090E00895F894FFCF8F
:00000001FF
