:100000000C942A000C943C000C943C000C943C0092
:100010000C943C000C943C000C943C000C943C0070
:100020000C943C000C943C000C9482000C94520004
:100030000C943C000C943C000C943C000C943C0050
:100040000C943C000C943C000C943C000C943C0040
:100050000C943C0011241FBECFE5D8E0DEBFCDBF1D
:1000600020E0A0E6B0E001C01D92A236B207E1F7A1
:100070000E9444000C948C000C94000012BE85E099
:1000800083BF8FEF8CBF08958FEF8ABB87BBB89873
:10009000789489B7816089BF89B7826089BF0E94DF
:1000A0003E00FFCF1F920F920FB60F9211242F9395
:1000B0008F939F938091600090916100019690933F
:1000C00061008093600080916000909161004F9783
:1000D00088F09BB381E089278BBB2FE788E391E011
:1000E000215080409040E1F700C000001092610074
:1000F000109260009F918F912F910F900FBE0F90E3
:100100001F9018951F920F920FB60F9211240F9007
:0C0110000FBE0F901F901895F894FFCFC1
:00000001FF
