S0210000504F5420636F6E74726F6C2050574D202B4C434420636F64652E7372656302
S11300000C94A7000C94BC000C94BC000C94BC0091
S11300100C94BC000C94BC000C94BC000C94BC006C
S11300200C94BC000C94BC000C94BC000C94BC005C
S11300300C94BC000C94BC000C94BC000C94BC004C
S11300400C94BC000C94BC000C94BC000C94BC003C
S11300500C94BC0000407A10F35A00A0724E1809A8
S11300600010A5D4E80000E87648170000E40B541B
S1130070020000CA9A3B000000E1F50500008096EA
S11300809800000040420F000000A086010000001C
S1130090102700000000E8030000000064000000D6
S11300A000000A00000000000100000000002C769F
S11300B0D888DC674F0823DFC1DFAE59E1B1B796BA
S11300C0E5E3E453C63AE651997696E8E6C2842617
S11300D0EB898C9B62ED407C6FFCEFBC9C9F40F2F3
S11300E0BAA56FA5F490055A2AF75C936B6CF9676F
S11300F06DC11BFCE0E40D47FEF520E6B500D0ED34
S1130100902E0300943577050080841E080000209B
S11301104E0A000000C80C333333330F986E128339
S11301201141EF8D2114893BE65516CFFEE6DB180D
S1130130D1844B381BF77C1D901DA4BBE4242032D2
S113014084725E228100C9F124ECA1E53D271124CB
S11301501FBECFE5D4E0DEBFCDBF10E0A0E6B0E027
S1130160EAE5FDE002C005900D92A837B107D9F782
S11301700E9428010C94AB060C9400001ABA80E487
S113018087B983E886B9089597B1892B87B9369AD8
S1130190349BFECF83E08A95F1F7000024B185B14A
S11301A090E0982F8827820F911D089588BBA89806
S11301B0A998AA9A0000AA988DEE92E00197F1F707
S11301C000C00000089588BBA89AA998AA9A0000C4
S11301D0AA9889EF90E00197F1F700C00000089514
S11301E08FEF84BB87BB87E893E10197F1F700C0E9
S11301F0000088E30E94D6008CE00E94D60086E0CE
S11302000E94D60081E00E94D60080E80E94D600B9
S11302100895CF93DF93EC018881882331F02196F0
S11302200E94E30089918111FBCFDF91CF91089562
S113023081E00E94D60080E80E94D600089583E2FF
S11302408FBD89E18EBD8FEF93E09BBD8ABD08957C
S1130250CF93DF93CDB7DEB764970FB6F894DEBFC4
S11302600FBECDBF0E94F0000E94BE000E941F017D
S113027080E00E94C4008C0199BD88BDA8B4B9B4C3
S1130280EAB4FBB4CAB4DBB44AE0BE016F5F7F4F8B
S11302900E940D04B801110F880B990B0E94F402FF
S11302A02AE038E240EA5BE30E9480038E010A5FA1
S11302B01F4F23E045E00E94ED03B50180E090E08C
S11302C00E94F20220E030E040E85FE30E94DE0199
S11302D04B015C01B7016F5F7F4F80E090E00E94AB
S11302E0F2029B01AC01C501B4010E944A0220E064
S11302F030E048EC52E40E9480030A5F1F4F21E083
S113030043E00E94ED03B60180E090E00E94F20217
S113031020E030E040E85FE30E94DE019B01AC0195
S113032060E074E284E799E40E944A020E94BC02FD
S1130330DC01CB014AE0BE01605F7F4F0E940D04E7
S113034080E690E00E940901CE0101960E94090115
S113035084E690E00E940901CE0106960E940901FC
S113036088E690E00E94090180EC0E94D6008BE6AA
S113037090E00E940901C8010E94090186EC0E94D4
S1130380D6008EE690E00E94090181E790E00E9489
S11303900901CE0140960E94090184E790E00E9481
S11303A009012FE38DE093E0215080409040E1F774
S11303B000C000000E9418015BCF5058BB27AA2739
S11303C00E94F5010C9446030E94380338F00E9401
S11303D03F0320F039F49F3F19F426F40C943503BD
S11303E00EF4E095E7FB0C942F03E92F0E945703CA
S11303F058F3BA17620773078407950720F079F456
S1130400A6F50C9479030EF4E0950B2EBA2FA02DCB
S11304100B01B90190010C01CA01A0011124FF27AD
S1130420591B99F0593F50F4503E68F11A16F040A8
S1130430A22F232F342F4427585FF3CF46953795A7
S11304402795A795F0405395C9F77EF41F16BA0B6C
S1130450620B730B840BBAF09150A1F0FF0FBB1F1A
S1130460661F771F881FC2F70EC0BA0F621F731F63
S1130470841F48F4879577956795B795F7959E3FC0
S113048008F0B0CF9395880F08F09927EE0F979551
S1130490879508950E945E020C9446030E943F03D0
S11304A058F00E94380340F029F45F3F29F00C947F
S11304B02F0351110C947A030C9435030E945703B3
S11304C068F39923B1F3552391F3951B550BBB277F
S11304D0AA2762177307840738F09F5F5F4F220FC4
S11304E0331F441FAA1FA9F335D00E2E3AF0E0E8BB
S11304F032D091505040E695001CCAF72BD0FE2F05
S113050029D0660F771F881FBB1F26173707480798
S1130510AB07B0E809F0BB0B802DBF01FF27935850
S11305205F4F3AF09E3F510578F00C942F030C94E2
S11305307A035F3FE4F3983ED4F386957795679505
S1130540B795F7959F5FC9F7880F911D9695879585
S113055097F90895E1E0660F771F881FBB1F6217A4
S113056073078407BA0720F0621B730B840BBA0B62
S1130570EE1F88F7E09508950E94C3026894B111B4
S11305800C947A0308950E945F0388F09F5798F0B3
S1130590B92F9927B751B0F0E1F0660F771F881F84
S11305A0991F1AF0BA95C9F714C0B13091F00E949E
S11305B07903B1E008950C947903672F782F882785
S11305C0B85F39F0B93FCCF3869577956795B395C5
S11305D0D9F73EF490958095709561957F4F8F4F34
S11305E09F4F0895E89409C097FB3EF49095809539
S11305F0709561957F4F8F4F9F4F9923A9F0F92FE5
S113060096E9BB279395F695879577956795B79562
S1130610F111F8CFFAF4BB0F11F460FF1BC06F5F48
S11306207F4F8F4F9F4F16C0882311F096E911C05A
S1130630772321F09EE8872F762F05C0662371F07B
S113064096E8862F70E060E02AF09A95660F771F8F
S1130650881FDAF7880F9695879597F9089597F983
S11306609F6780E870E060E008959FEF80EC089554
S113067000240A941616170618060906089500247D
S11306800A9412161306140605060895092E0394F7
S1130690000C11F4882352F0BB0F40F4BF2B11F46B
S11306A060FF04C06F5F7F4F8F4F9F4F089557FDCA
S11306B09058440F551F59F05F3F71F04795880FCC
S11306C097FB991F61F09F3F79F087950895121663
S11306D013061406551FF2CF4695F1DF08C016160F
S11306E017061806991FF1CF8695710561050894C0
S11306F00895E894BB2766277727CB0197F90895D7
S11307000E9493030C9446030E94380338F00E941D
S11307103F0320F0952311F00C942F030C94350320
S113072011240C947A030E94570370F3959FC1F32C
S1130730950F50E0551F629FF001729FBB27F00D8B
S1130740B11D639FAA27F00DB11DAA1F649F6627E0
S1130750B00DA11D661F829F2227B00DA11D621F2F
S1130760739FB00DA11D621F839FA00D611D221FE9
S1130770749F3327A00D611D231F849F600D211DCD
S1130780822F762F6A2F11249F5750409AF0F1F050
S113079088234AF0EE0FFF1FBB1F661F771F881FB9
S11307A091505040A9F79E3F510580F00C942F03BF
S11307B00C947A035F3FE4F3983ED4F386957795DF
S11307C06795B795F795E7959F5FC1F7FE2B880F5F
S11307D0911D9695879597F90895EF920F931F931E
S11307E0CF93DF93E80147FD02C034E001C034E158
S11307F0042E000C550B57FF03C051954195510928
S1130800E32E022F242FAE010E943204CE01DF9189
S1130810CF911F910F91EF900895BB274A3031F487
S1130820992322F4BDE2909581959F4F0C9419046D
S1130830BB27FB015527AA27880F991FAA1FA417B6
S113084010F0A41B83955051B9F7A05DAA3308F0AA
S1130850A95DA193009779F7B111B1931192CB01DE
S11308600C946406A9E0B0E0E8E3F4E00C947A06A2
S11308706A01122FB02E2BE3201720F0FF24F394EB
S1130880F00E02C02CE3F22E0F2D27E0AE014F5FD5
S11308905F4F0E948C05BC014981842F897081308F
S11308A031F0E1FC06C0E0FE06C090E205C09DE226
S11308B003C09BE201C090E05E2D507143FF3CC039
S11308C0911102C083E001C084E0811718F4212F44
S11308D0281B01C020E051110BC0F601822F30E229
S11308E0882319F031938150FBCFC20ED11C20E034
S11308F0992329F0D6019C93F60131966F01C60124
S11309000396E2FE0AC03EE4D6013C9341E411960C
S11309104C93119712963C9306C03EE6F601308341
S113092041E641833283FC01322F40E2332309F450
S113093042C041933150FACF42FF44C0911102C0EA
S113094083E001C084E0811718F4212F281B01C023
S113095020E051110BC0F601822F30E2882319F0F8
S113096031938150FBCFC20ED11C20E0992329F092
S1130970D6019C93F60131966F01C6010396E2FEFF
S11309800BC039E4D6013C933EE411963C93119795
S113099036E412963C9307C039E6F60130833EE60E
S11309A0318336E63283FC01322F40E2332319F0DF
S11309B041933150FBCFFC01E20FF11D10828EEF09
S11309C09FEFA6C021E030E0911102C020E030E0AA
S11309D0161617061CF4FB01319602C0E1E0F0E0A4
S11309E02E0F3F1FBB2021F0EB2DF0E0319602C00B
S11309F0E0E0F0E02E0F3F1FE12FF0E02E173F075D
S1130A001CF4121B212F01C020E08E2D887159F493
S1130A10F601822F30E2882319F031938150FBCF05
S1130A20C20ED11C20E0992329F0D6019C93F60133
S1130A3031966F0151110BC0F601822F90E3882388
S1130A4019F091938150FBCFC20ED11C20E00F2DE1
S1130A50060F9A81342F307144FF03C0913309F497
S1130A600150101624F4093018F008E001C001E028
S1130A70AB0177FF02C040E050E0FB01E41BF50B43
S1130A80A1E0B0E0AC0FBD1FEA0FFB1F8EE2A82E61
S1130A904B01801A91080B2D10E011950195110955
S1130AA04F3FBFEF5B0721F4D601AC9211966D0165
S1130AB0641775072CF08416950614F4818101C01F
S1130AC080E3415051093196D60111967D014017BA
S1130AD0510724F0D6018C936701E2CF64177507A0
S1130AE039F4963320F4953319F4311101C081E3BC
S1130AF0F6018083F701822F90E2882319F0919305
S1130B008150FBCFF701E20FF11D108280E090E0ED
S1130B102996ECE00C949606283008F027E0332759
S1130B20DA01990F311D87FD916000966105710509
S1130B3039F432602E5F3D9330E32A95E1F708954E
S1130B409F3F30F080387105610509F03C5F3C5FE0
S1130B503D93913008F08068911DDF93CF931F93EC
S1130B600F93FF92EF92192F987F9695E92F969500
S1130B709695E90FFF27E255FF4F99273327EE2477
S1130B80FF24A701E70105900894079428F4360F81
S1130B90E71EF81E491F511D660F771F881F991FF6
S1130BA00694A1F70590079428F4E70EF81E491F50
S1130BB0561FC11D770F881F991F661F0694A1F742
S1130BC00590079428F4F80E491F561FC71FD11D1E
S1130BD0880F991F661F771F0694A1F70590079445
S1130BE020F4490F561FC71FD81F990F661F771F80
S1130BF0881F0694A9F784911095177041F0D69533
S1130C00C79557954795F794E7941A95C1F7E4E586
S1130C10F0E0689415901591359165919591059042
S1130C207FE27395E118F10A430B560BC90BD00907
S1130C30C0F7E10CF11E431F561FC91FD01D7EF4DF
S1130C40703311F48A95E6CFE894015030F0080F20
S1130C500AF40027021708F4202F2395022F7A3371
S1130C6028F079E37D932A95E9F710C07D932A95BE
S1130C7089F6069497956795379517951794E11813
S1130C80F10A430B560BC90BD00998F023957E91BA
S1130C9073957A3308F070E37C932013B8F77E9150
S1130CA070617D9330F0839571E37D9370E32A95B1
S1130CB0E1F71124EF90FF900F911F91CF91DF91F5
S1130CC0992787FD90950895DC01FC01672F7191A8
S1130CD07723E1F7329704C07C916D93708362911E
S1130CE0AE17BF07C8F308952F923F924F925F92B9
S1130CF06F927F928F929F92AF92BF92CF92DF9228
S1130D00EF92FF920F931F93CF93DF93CDB7DEB78C
S1130D10CA1BDB0B0FB6F894DEBF0FBECDBF099420
S1130D202A88398848885F846E847D848C849B8477
S1130D30AA84B984C884DF80EE80FD800C811B8185
S1130D40AA81B981CE0FD11D0FB6F894DEBF0FBEB4
S10D0D50CDBFED010895F894FFCF24
S1130D5A44673D0020413D00762000443D002520A3
S10B0D6A00463D00487A000038
S9030000FC
