S00B00004932432E737265635B
S11300000C942A000C9434000C9434000C943400A6
S11300100C9434000C9434000C9434000C9434008C
S11300200C9434000C9434000C9434000C9434007C
S11300300C9434000C9434000C9434000C9434006C
S11300400C9434000C9434000C9434000C9434005C
S11300500C94340011241FBECFE5D4E0DEBFCDBF25
S11300600E945C000C946C000C94000088E080B941
S113007086B7846086BF089596B7906A96BF06B621
S113008007FEFDCF83B986B7806886BF089586B71B
S1130090806986BF06B604FEFDCF0895E7ECF0E064
S11300A03197F1F700C0000083B986B7806886BF36
S11300B006B607FEFDCF08950E94360080E70E9431
S11300C03C0080E00E944E008AEA0E944E000E949A
S10F00D0470080E090E00895F894FFCF12
S9030000FC
