S01100005541525420434F44452E737265639C
S11300000C942A000C943F000C943F000C943F0085
S11300100C943F000C943F000C943F000C943F0060
S11300200C943F000C943F000C943F000C943F0050
S11300300C943F000C943F000C943F000C943F0040
S11300400C943F000C943F000C943F000C943F0030
S11300500C943F0011241FBECFE5D4E0DEBFCDBF1A
S113006010E0A0E6B0E0E4EBF1E002C005900D92F0
S1130070A037B107D9F70E94A0000C94D8000C94C3
S11300800000452B01F5DC01CB01880F991FAA1F45
S1130090BB1F880F991FAA1FBB1F9C01AD01220F14
S11300A0331F441F551F220F331F441F551F60E089
S11300B072E18AE790E00E94B600DA01C901019773
S11300C0A109B10914C020B5206420BD9B01AC0175
S11300D0220F331F441F551F60E072E18AE790E04E
S11300E00E94B600DA01C9010197A109B10989B9D1
S11300F0892F9A2FAB2FBB27A7FDBA9580BD80B55A
S1130100866880BD8AB188618AB908955D9BFECFF7
S11301108CB908950F931F93CF93FC018081803392
S113012059F08F01C0E00E948600CF5FF801EC0F08
S1130130F11D80818033B9F7CF911F910F910895FC
S113014040E050E060E875E280E090E00E94410009
S113015080E690E00E948A002FEF89E698E1215022
S113016080409040E1F700C00000F2CFA1E21A2ED7
S1130170AA1BBB1BFD010DC0AA1FBB1FEE1FFF1F47
S1130180A217B307E407F50720F0A21BB30BE40B97
S1130190F50B661F771F881F991F1A9469F76095DE
S11301A07095809590959B01AC01BD01CF01089598
S10701B0F894FFCFED
S11301B454657374204D6573736167652121200050
S9030000FC
