:100000000C942A000C9434000C9434000C943400AA
:100010000C9434000C9434000C9434000C94340090
:100020000C9434000C9434000C9434000C94340080
:100030000C9434000C9434000C9434000C94340070
:100040000C9434000C9434000C9434000C94340060
:100050000C94340011241FBECFE5D8E0DEBFCDBF25
:100060000E9446000C9453000C9400008FB58360EE
:100070008FBD8EB588608EBD8FB5806A8FBD8EB501
:1000800084608EBD87B3806387BB08958FEF91E056
:100090009BBD8ABD82E393E099BD88BD0E94360076
:0A00A00080E090E00895F894FFCF8F
:00000001FF
